{
	"data": {
		"bytecode": {
			"linkReferences": {},
			"object": "6080604052348015600e575f5ffd5b5061070d8061001c5f395ff3fe608060405234801561000f575f5ffd5b506004361061004a575f3560e01c8063a2fd35d71461004e578063a5c956091461006a578063c056c7591461009a578063ca902299146100ca575b5f5ffd5b610068600480360381019061006391906103af565b6100e6565b005b610084600480360381019061007f919061043c565b610162565b60405161009191906104a5565b60405180910390f35b6100b460048036038101906100af91906104be565b6101a4565b6040516100c19190610514565b60405180910390f35b6100e460048036038101906100df919061043c565b6101d1565b005b5f826040516100f5919061057f565b908152602001604051809103902081908060018154018082558091505060019003905f5260205f20015f90919091909150557fa32b92311d4910d53fdddcf93a238419a815906305d579caf8d933aacd39f640826040516101569190610627565b60405180910390a15050565b5f828051602081018201805184825260208301602085012081835280955050505050508181548110610192575f80fd5b905f5260205f20015f91509150505481565b6001818051602081018201805184825260208301602085012081835280955050505050505f915090505481565b806001836040516101e2919061057f565b9081526020016040518091039020819055507fa32b92311d4910d53fdddcf93a238419a815906305d579caf8d933aacd39f6408260405161022391906106a4565b60405180910390a15050565b5f604051905090565b5f5ffd5b5f5ffd5b5f5ffd5b5f5ffd5b5f601f19601f8301169050919050565b7f4e487b71000000000000000000000000000000000000000000000000000000005f52604160045260245ffd5b61028e82610248565b810181811067ffffffffffffffff821117156102ad576102ac610258565b5b80604052505050565b5f6102bf61022f565b90506102cb8282610285565b919050565b5f67ffffffffffffffff8211156102ea576102e9610258565b5b6102f382610248565b9050602081019050919050565b828183375f83830152505050565b5f61032061031b846102d0565b6102b6565b90508281526020810184848401111561033c5761033b610244565b5b610347848285610300565b509392505050565b5f82601f83011261036357610362610240565b5b813561037384826020860161030e565b91505092915050565b5f819050919050565b61038e8161037c565b8114610398575f5ffd5b50565b5f813590506103a981610385565b92915050565b5f5f604083850312156103c5576103c4610238565b5b5f83013567ffffffffffffffff8111156103e2576103e161023c565b5b6103ee8582860161034f565b92505060206103ff8582860161039b565b9150509250929050565b5f819050919050565b61041b81610409565b8114610425575f5ffd5b50565b5f8135905061043681610412565b92915050565b5f5f6040838503121561045257610451610238565b5b5f83013567ffffffffffffffff81111561046f5761046e61023c565b5b61047b8582860161034f565b925050602061048c85828601610428565b9150509250929050565b61049f8161037c565b82525050565b5f6020820190506104b85f830184610496565b92915050565b5f602082840312156104d3576104d2610238565b5b5f82013567ffffffffffffffff8111156104f0576104ef61023c565b5b6104fc8482850161034f565b91505092915050565b61050e81610409565b82525050565b5f6020820190506105275f830184610505565b92915050565b5f81519050919050565b5f81905092915050565b8281835e5f83830152505050565b5f6105598261052d565b6105638185610537565b9350610573818560208601610541565b80840191505092915050565b5f61058a828461054f565b915081905092915050565b5f82825260208201905092915050565b5f6105af8261052d565b6105b98185610595565b93506105c9818560208601610541565b6105d281610248565b840191505092915050565b7f4d41494e54454e414e43450000000000000000000000000000000000000000005f82015250565b5f610611600b83610595565b915061061c826105dd565b602082019050919050565b5f6040820190508181035f83015261063f81846105a5565b9050818103602083015261065281610605565b905092915050565b7f4d494c454147455f5550444154450000000000000000000000000000000000005f82015250565b5f61068e600e83610595565b91506106998261065a565b602082019050919050565b5f6040820190508181035f8301526106bc81846105a5565b905081810360208301526106cf81610682565b90509291505056fea26469706673582212203781a701b3441e1170149ccdaf3bde7205234845fed0663fd0b4a379543c896864736f6c63430008220033",
			"opcodes": "PUSH1 0x80 PUSH1 0x40 MSTORE CALLVALUE DUP1 ISZERO PUSH1 0xE JUMPI PUSH0 PUSH0 REVERT JUMPDEST POP PUSH2 0x70D DUP1 PUSH2 0x1C PUSH0 CODECOPY PUSH0 RETURN INVALID PUSH1 0x80 PUSH1 0x40 MSTORE CALLVALUE DUP1 ISZERO PUSH2 0xF JUMPI PUSH0 PUSH0 REVERT JUMPDEST POP PUSH1 0x4 CALLDATASIZE LT PUSH2 0x4A JUMPI PUSH0 CALLDATALOAD PUSH1 0xE0 SHR DUP1 PUSH4 0xA2FD35D7 EQ PUSH2 0x4E JUMPI DUP1 PUSH4 0xA5C95609 EQ PUSH2 0x6A JUMPI DUP1 PUSH4 0xC056C759 EQ PUSH2 0x9A JUMPI DUP1 PUSH4 0xCA902299 EQ PUSH2 0xCA JUMPI JUMPDEST PUSH0 PUSH0 REVERT JUMPDEST PUSH2 0x68 PUSH1 0x4 DUP1 CALLDATASIZE SUB DUP2 ADD SWAP1 PUSH2 0x63 SWAP2 SWAP1 PUSH2 0x3AF JUMP JUMPDEST PUSH2 0xE6 JUMP JUMPDEST STOP JUMPDEST PUSH2 0x84 PUSH1 0x4 DUP1 CALLDATASIZE SUB DUP2 ADD SWAP1 PUSH2 0x7F SWAP2 SWAP1 PUSH2 0x43C JUMP JUMPDEST PUSH2 0x162 JUMP JUMPDEST PUSH1 0x40 MLOAD PUSH2 0x91 SWAP2 SWAP1 PUSH2 0x4A5 JUMP JUMPDEST PUSH1 0x40 MLOAD DUP1 SWAP2 SUB SWAP1 RETURN JUMPDEST PUSH2 0xB4 PUSH1 0x4 DUP1 CALLDATASIZE SUB DUP2 ADD SWAP1 PUSH2 0xAF SWAP2 SWAP1 PUSH2 0x4BE JUMP JUMPDEST PUSH2 0x1A4 JUMP JUMPDEST PUSH1 0x40 MLOAD PUSH2 0xC1 SWAP2 SWAP1 PUSH2 0x514 JUMP JUMPDEST PUSH1 0x40 MLOAD DUP1 SWAP2 SUB SWAP1 RETURN JUMPDEST PUSH2 0xE4 PUSH1 0x4 DUP1 CALLDATASIZE SUB DUP2 ADD SWAP1 PUSH2 0xDF SWAP2 SWAP1 PUSH2 0x43C JUMP JUMPDEST PUSH2 0x1D1 JUMP JUMPDEST STOP JUMPDEST PUSH0 DUP3 PUSH1 0x40 MLOAD PUSH2 0xF5 SWAP2 SWAP1 PUSH2 0x57F JUMP JUMPDEST SWAP1 DUP2 MSTORE PUSH1 0x20 ADD PUSH1 0x40 MLOAD DUP1 SWAP2 SUB SWAP1 KECCAK256 DUP2 SWAP1 DUP1 PUSH1 0x1 DUP2 SLOAD ADD DUP1 DUP3 SSTORE DUP1 SWAP2 POP POP PUSH1 0x1 SWAP1 SUB SWAP1 PUSH0 MSTORE PUSH1 0x20 PUSH0 KECCAK256 ADD PUSH0 SWAP1 SWAP2 SWAP1 SWAP2 SWAP1 SWAP2 POP SSTORE PUSH32 0xA32B92311D4910D53FDDDCF93A238419A815906305D579CAF8D933AACD39F640 DUP3 PUSH1 0x40 MLOAD PUSH2 0x156 SWAP2 SWAP1 PUSH2 0x627 JUMP JUMPDEST PUSH1 0x40 MLOAD DUP1 SWAP2 SUB SWAP1 LOG1 POP POP JUMP JUMPDEST PUSH0 DUP3 DUP1 MLOAD PUSH1 0x20 DUP2 ADD DUP3 ADD DUP1 MLOAD DUP5 DUP3 MSTORE PUSH1 0x20 DUP4 ADD PUSH1 0x20 DUP6 ADD KECCAK256 DUP2 DUP4 MSTORE DUP1 SWAP6 POP POP POP POP POP POP DUP2 DUP2 SLOAD DUP2 LT PUSH2 0x192 JUMPI PUSH0 DUP1 REVERT JUMPDEST SWAP1 PUSH0 MSTORE PUSH1 0x20 PUSH0 KECCAK256 ADD PUSH0 SWAP2 POP SWAP2 POP POP SLOAD DUP2 JUMP JUMPDEST PUSH1 0x1 DUP2 DUP1 MLOAD PUSH1 0x20 DUP2 ADD DUP3 ADD DUP1 MLOAD DUP5 DUP3 MSTORE PUSH1 0x20 DUP4 ADD PUSH1 0x20 DUP6 ADD KECCAK256 DUP2 DUP4 MSTORE DUP1 SWAP6 POP POP POP POP POP POP PUSH0 SWAP2 POP SWAP1 POP SLOAD DUP2 JUMP JUMPDEST DUP1 PUSH1 0x1 DUP4 PUSH1 0x40 MLOAD PUSH2 0x1E2 SWAP2 SWAP1 PUSH2 0x57F JUMP JUMPDEST SWAP1 DUP2 MSTORE PUSH1 0x20 ADD PUSH1 0x40 MLOAD DUP1 SWAP2 SUB SWAP1 KECCAK256 DUP2 SWAP1 SSTORE POP PUSH32 0xA32B92311D4910D53FDDDCF93A238419A815906305D579CAF8D933AACD39F640 DUP3 PUSH1 0x40 MLOAD PUSH2 0x223 SWAP2 SWAP1 PUSH2 0x6A4 JUMP JUMPDEST PUSH1 0x40 MLOAD DUP1 SWAP2 SUB SWAP1 LOG1 POP POP JUMP JUMPDEST PUSH0 PUSH1 0x40 MLOAD SWAP1 POP SWAP1 JUMP JUMPDEST PUSH0 PUSH0 REVERT JUMPDEST PUSH0 PUSH0 REVERT JUMPDEST PUSH0 PUSH0 REVERT JUMPDEST PUSH0 PUSH0 REVERT JUMPDEST PUSH0 PUSH1 0x1F NOT PUSH1 0x1F DUP4 ADD AND SWAP1 POP SWAP2 SWAP1 POP JUMP JUMPDEST PUSH32 0x4E487B7100000000000000000000000000000000000000000000000000000000 PUSH0 MSTORE PUSH1 0x41 PUSH1 0x4 MSTORE PUSH1 0x24 PUSH0 REVERT JUMPDEST PUSH2 0x28E DUP3 PUSH2 0x248 JUMP JUMPDEST DUP2 ADD DUP2 DUP2 LT PUSH8 0xFFFFFFFFFFFFFFFF DUP3 GT OR ISZERO PUSH2 0x2AD JUMPI PUSH2 0x2AC PUSH2 0x258 JUMP JUMPDEST JUMPDEST DUP1 PUSH1 0x40 MSTORE POP POP POP JUMP JUMPDEST PUSH0 PUSH2 0x2BF PUSH2 0x22F JUMP JUMPDEST SWAP1 POP PUSH2 0x2CB DUP3 DUP3 PUSH2 0x285 JUMP JUMPDEST SWAP2 SWAP1 POP JUMP JUMPDEST PUSH0 PUSH8 0xFFFFFFFFFFFFFFFF DUP3 GT ISZERO PUSH2 0x2EA JUMPI PUSH2 0x2E9 PUSH2 0x258 JUMP JUMPDEST JUMPDEST PUSH2 0x2F3 DUP3 PUSH2 0x248 JUMP JUMPDEST SWAP1 POP PUSH1 0x20 DUP2 ADD SWAP1 POP SWAP2 SWAP1 POP JUMP JUMPDEST DUP3 DUP2 DUP4 CALLDATACOPY PUSH0 DUP4 DUP4 ADD MSTORE POP POP POP JUMP JUMPDEST PUSH0 PUSH2 0x320 PUSH2 0x31B DUP5 PUSH2 0x2D0 JUMP JUMPDEST PUSH2 0x2B6 JUMP JUMPDEST SWAP1 POP DUP3 DUP2 MSTORE PUSH1 0x20 DUP2 ADD DUP5 DUP5 DUP5 ADD GT ISZERO PUSH2 0x33C JUMPI PUSH2 0x33B PUSH2 0x244 JUMP JUMPDEST JUMPDEST PUSH2 0x347 DUP5 DUP3 DUP6 PUSH2 0x300 JUMP JUMPDEST POP SWAP4 SWAP3 POP POP POP JUMP JUMPDEST PUSH0 DUP3 PUSH1 0x1F DUP4 ADD SLT PUSH2 0x363 JUMPI PUSH2 0x362 PUSH2 0x240 JUMP JUMPDEST JUMPDEST DUP2 CALLDATALOAD PUSH2 0x373 DUP5 DUP3 PUSH1 0x20 DUP7 ADD PUSH2 0x30E JUMP JUMPDEST SWAP2 POP POP SWAP3 SWAP2 POP POP JUMP JUMPDEST PUSH0 DUP2 SWAP1 POP SWAP2 SWAP1 POP JUMP JUMPDEST PUSH2 0x38E DUP2 PUSH2 0x37C JUMP JUMPDEST DUP2 EQ PUSH2 0x398 JUMPI PUSH0 PUSH0 REVERT JUMPDEST POP JUMP JUMPDEST PUSH0 DUP2 CALLDATALOAD SWAP1 POP PUSH2 0x3A9 DUP2 PUSH2 0x385 JUMP JUMPDEST SWAP3 SWAP2 POP POP JUMP JUMPDEST PUSH0 PUSH0 PUSH1 0x40 DUP4 DUP6 SUB SLT ISZERO PUSH2 0x3C5 JUMPI PUSH2 0x3C4 PUSH2 0x238 JUMP JUMPDEST JUMPDEST PUSH0 DUP4 ADD CALLDATALOAD PUSH8 0xFFFFFFFFFFFFFFFF DUP2 GT ISZERO PUSH2 0x3E2 JUMPI PUSH2 0x3E1 PUSH2 0x23C JUMP JUMPDEST JUMPDEST PUSH2 0x3EE DUP6 DUP3 DUP7 ADD PUSH2 0x34F JUMP JUMPDEST SWAP3 POP POP PUSH1 0x20 PUSH2 0x3FF DUP6 DUP3 DUP7 ADD PUSH2 0x39B JUMP JUMPDEST SWAP2 POP POP SWAP3 POP SWAP3 SWAP1 POP JUMP JUMPDEST PUSH0 DUP2 SWAP1 POP SWAP2 SWAP1 POP JUMP JUMPDEST PUSH2 0x41B DUP2 PUSH2 0x409 JUMP JUMPDEST DUP2 EQ PUSH2 0x425 JUMPI PUSH0 PUSH0 REVERT JUMPDEST POP JUMP JUMPDEST PUSH0 DUP2 CALLDATALOAD SWAP1 POP PUSH2 0x436 DUP2 PUSH2 0x412 JUMP JUMPDEST SWAP3 SWAP2 POP POP JUMP JUMPDEST PUSH0 PUSH0 PUSH1 0x40 DUP4 DUP6 SUB SLT ISZERO PUSH2 0x452 JUMPI PUSH2 0x451 PUSH2 0x238 JUMP JUMPDEST JUMPDEST PUSH0 DUP4 ADD CALLDATALOAD PUSH8 0xFFFFFFFFFFFFFFFF DUP2 GT ISZERO PUSH2 0x46F JUMPI PUSH2 0x46E PUSH2 0x23C JUMP JUMPDEST JUMPDEST PUSH2 0x47B DUP6 DUP3 DUP7 ADD PUSH2 0x34F JUMP JUMPDEST SWAP3 POP POP PUSH1 0x20 PUSH2 0x48C DUP6 DUP3 DUP7 ADD PUSH2 0x428 JUMP JUMPDEST SWAP2 POP POP SWAP3 POP SWAP3 SWAP1 POP JUMP JUMPDEST PUSH2 0x49F DUP2 PUSH2 0x37C JUMP JUMPDEST DUP3 MSTORE POP POP JUMP JUMPDEST PUSH0 PUSH1 0x20 DUP3 ADD SWAP1 POP PUSH2 0x4B8 PUSH0 DUP4 ADD DUP5 PUSH2 0x496 JUMP JUMPDEST SWAP3 SWAP2 POP POP JUMP JUMPDEST PUSH0 PUSH1 0x20 DUP3 DUP5 SUB SLT ISZERO PUSH2 0x4D3 JUMPI PUSH2 0x4D2 PUSH2 0x238 JUMP JUMPDEST JUMPDEST PUSH0 DUP3 ADD CALLDATALOAD PUSH8 0xFFFFFFFFFFFFFFFF DUP2 GT ISZERO PUSH2 0x4F0 JUMPI PUSH2 0x4EF PUSH2 0x23C JUMP JUMPDEST JUMPDEST PUSH2 0x4FC DUP5 DUP3 DUP6 ADD PUSH2 0x34F JUMP JUMPDEST SWAP2 POP POP SWAP3 SWAP2 POP POP JUMP JUMPDEST PUSH2 0x50E DUP2 PUSH2 0x409 JUMP JUMPDEST DUP3 MSTORE POP POP JUMP JUMPDEST PUSH0 PUSH1 0x20 DUP3 ADD SWAP1 POP PUSH2 0x527 PUSH0 DUP4 ADD DUP5 PUSH2 0x505 JUMP JUMPDEST SWAP3 SWAP2 POP POP JUMP JUMPDEST PUSH0 DUP2 MLOAD SWAP1 POP SWAP2 SWAP1 POP JUMP JUMPDEST PUSH0 DUP2 SWAP1 POP SWAP3 SWAP2 POP POP JUMP JUMPDEST DUP3 DUP2 DUP4 MCOPY PUSH0 DUP4 DUP4 ADD MSTORE POP POP POP JUMP JUMPDEST PUSH0 PUSH2 0x559 DUP3 PUSH2 0x52D JUMP JUMPDEST PUSH2 0x563 DUP2 DUP6 PUSH2 0x537 JUMP JUMPDEST SWAP4 POP PUSH2 0x573 DUP2 DUP6 PUSH1 0x20 DUP7 ADD PUSH2 0x541 JUMP JUMPDEST DUP1 DUP5 ADD SWAP2 POP POP SWAP3 SWAP2 POP POP JUMP JUMPDEST PUSH0 PUSH2 0x58A DUP3 DUP5 PUSH2 0x54F JUMP JUMPDEST SWAP2 POP DUP2 SWAP1 POP SWAP3 SWAP2 POP POP JUMP JUMPDEST PUSH0 DUP3 DUP3 MSTORE PUSH1 0x20 DUP3 ADD SWAP1 POP SWAP3 SWAP2 POP POP JUMP JUMPDEST PUSH0 PUSH2 0x5AF DUP3 PUSH2 0x52D JUMP JUMPDEST PUSH2 0x5B9 DUP2 DUP6 PUSH2 0x595 JUMP JUMPDEST SWAP4 POP PUSH2 0x5C9 DUP2 DUP6 PUSH1 0x20 DUP7 ADD PUSH2 0x541 JUMP JUMPDEST PUSH2 0x5D2 DUP2 PUSH2 0x248 JUMP JUMPDEST DUP5 ADD SWAP2 POP POP SWAP3 SWAP2 POP POP JUMP JUMPDEST PUSH32 0x4D41494E54454E414E4345000000000000000000000000000000000000000000 PUSH0 DUP3 ADD MSTORE POP JUMP JUMPDEST PUSH0 PUSH2 0x611 PUSH1 0xB DUP4 PUSH2 0x595 JUMP JUMPDEST SWAP2 POP PUSH2 0x61C DUP3 PUSH2 0x5DD JUMP JUMPDEST PUSH1 0x20 DUP3 ADD SWAP1 POP SWAP2 SWAP1 POP JUMP JUMPDEST PUSH0 PUSH1 0x40 DUP3 ADD SWAP1 POP DUP2 DUP2 SUB PUSH0 DUP4 ADD MSTORE PUSH2 0x63F DUP2 DUP5 PUSH2 0x5A5 JUMP JUMPDEST SWAP1 POP DUP2 DUP2 SUB PUSH1 0x20 DUP4 ADD MSTORE PUSH2 0x652 DUP2 PUSH2 0x605 JUMP JUMPDEST SWAP1 POP SWAP3 SWAP2 POP POP JUMP JUMPDEST PUSH32 0x4D494C454147455F555044415445000000000000000000000000000000000000 PUSH0 DUP3 ADD MSTORE POP JUMP JUMPDEST PUSH0 PUSH2 0x68E PUSH1 0xE DUP4 PUSH2 0x595 JUMP JUMPDEST SWAP2 POP PUSH2 0x699 DUP3 PUSH2 0x65A JUMP JUMPDEST PUSH1 0x20 DUP3 ADD SWAP1 POP SWAP2 SWAP1 POP JUMP JUMPDEST PUSH0 PUSH1 0x40 DUP3 ADD SWAP1 POP DUP2 DUP2 SUB PUSH0 DUP4 ADD MSTORE PUSH2 0x6BC DUP2 DUP5 PUSH2 0x5A5 JUMP JUMPDEST SWAP1 POP DUP2 DUP2 SUB PUSH1 0x20 DUP4 ADD MSTORE PUSH2 0x6CF DUP2 PUSH2 0x682 JUMP JUMPDEST SWAP1 POP SWAP3 SWAP2 POP POP JUMP INVALID LOG2 PUSH5 0x6970667358 0x22 SLT KECCAK256 CALLDATACOPY DUP2 0xA7 ADD 0xB3 PREVRANDAO CLZ GT PUSH17 0x149CCDAF3BDE7205234845FED0663FD0B4 LOG3 PUSH26 0x543C896864736F6C634300082200330000000000000000000000 "
		},
		"gasEstimates": {
			"creation": {
				"codeDepositCost": "361000",
				"executionCost": "397",
				"totalCost": "361397"
			},
			"external": {
				"certifiedMileage(string)": "infinite",
				"maintenanceHashes(string,uint256)": "infinite",
				"recordMaintenance(string,bytes32)": "infinite",
				"updateMileage(string,uint256)": "infinite"
			}
		},
		"methodIdentifiers": {
			"certifiedMileage(string)": "c056c759",
			"maintenanceHashes(string,uint256)": "a5c95609",
			"recordMaintenance(string,bytes32)": "a2fd35d7",
			"updateMileage(string,uint256)": "ca902299"
		}
	},
	"abi": [
		{
			"anonymous": false,
			"inputs": [
				{
					"indexed": false,
					"internalType": "string",
					"name": "vin",
					"type": "string"
				},
				{
					"indexed": false,
					"internalType": "string",
					"name": "operationType",
					"type": "string"
				}
			],
			"name": "RecordUpdated",
			"type": "event"
		},
		{
			"inputs": [
				{
					"internalType": "string",
					"name": "",
					"type": "string"
				}
			],
			"name": "certifiedMileage",
			"outputs": [
				{
					"internalType": "uint256",
					"name": "",
					"type": "uint256"
				}
			],
			"stateMutability": "view",
			"type": "function"
		},
		{
			"inputs": [
				{
					"internalType": "string",
					"name": "",
					"type": "string"
				},
				{
					"internalType": "uint256",
					"name": "",
					"type": "uint256"
				}
			],
			"name": "maintenanceHashes",
			"outputs": [
				{
					"internalType": "bytes32",
					"name": "",
					"type": "bytes32"
				}
			],
			"stateMutability": "view",
			"type": "function"
		},
		{
			"inputs": [
				{
					"internalType": "string",
					"name": "vin",
					"type": "string"
				},
				{
					"internalType": "bytes32",
					"name": "_hash",
					"type": "bytes32"
				}
			],
			"name": "recordMaintenance",
			"outputs": [],
			"stateMutability": "nonpayable",
			"type": "function"
		},
		{
			"inputs": [
				{
					"internalType": "string",
					"name": "vin",
					"type": "string"
				},
				{
					"internalType": "uint256",
					"name": "mileage",
					"type": "uint256"
				}
			],
			"name": "updateMileage",
			"outputs": [],
			"stateMutability": "nonpayable",
			"type": "function"
		}
	]
}